:020000040000fa
:080000000001040000000000f3
:020000040000fa
:04000800540200009e
:020000040000fa
:04000c006602000088
:020000040000fa
:040010007602000074
:020000040000fa
:040014005c0200008a
:020000040000fa
:040018006e02000074
:020000040000fa
:04001c00ae02000030
:020000040000fa
:04002000ae0200002c
:020000040000fa
:04002400ae02000028
:020000040000fa
:040028007e02000054
:020000040000fa
:04002c00ae02000020
:020000040000fa
:04003000ae0200001c
:020000040000fa
:040034001c020000aa
:020000040000fa
:04003800ae02000014
:020000040000fa
:04003c00ae02000010
:020000040000fa
:04004000ae0200000c
:020000040000fa
:04004400ae02000008
:020000040000fa
:04004800ae02000004
:020000040000fa
:04004c00ae02000000
:020000040000fa
:04005000ae020000fc
:020000040000fa
:040054009c0200000a
:020000040000fa
:04005800ae020000f4
:020000040000fa
:04005c00ae020000f0
:020000040000fa
:04006000ae020000ec
:020000040000fa
:04006400ae020000e8
:020000040000fa
:04006800ae020000e4
:020000040000fa
:04006c00ae020000e0
:020000040000fa
:04007000ae020000dc
:020000040000fa
:04007400ae020000d8
:020000040000fa
:04007800ae020000d4
:020000040000fa
:04007c00ae020000d0
:020000040000fa
:04008000ae020000cc
:020000040000fa
:04008400ae020000c8
:020000040000fa
:04008800ae020000c4
:020000040000fa
:04008c00ae020000c0
:020000040000fa
:04009000ae020000bc
:020000040000fa
:04009400ae020000b8
:020000040000fa
:04009800ae020000b4
:020000040000fa
:04009c00ae020000b0
:020000040000fa
:0400a000ae020000ac
:020000040000fa
:0400a400ae020000a8
:020000040000fa
:0400a800ae020000a4
:020000040000fa
:0400ac00ae020000a0
:020000040000fa
:0400b000ae0200009c
:020000040000fa
:0400b400ae02000098
:020000040000fa
:0400b800ae02000094
:020000040000fa
:0400bc00ae02000090
:020000040000fa
:0400c000ae0200008c
:020000040000fa
:0400c400ae02000088
:020000040000fa
:0400c800ae02000084
:020000040000fa
:0400cc00ae02000080
:020000040000fa
:0400d000ae0200007c
:020000040000fa
:0400d400ae02000078
:020000040000fa
:0400d800ae02000074
:020000040000fa
:0400dc00ae02000070
:020000040000fa
:0400e000ae0200006c
:020000040000fa
:0400e400ae02000068
:020000040000fa
:0400e800ae02000064
:020000040000fa
:0400ec00ae02000060
:020000040000fa
:0400f000ae0200005c
:020000040000fa
:0400f400ae02000058
:020000040000fa
:0400f800ae02000054
:020000040000fa
:0400fc00ae02000050
:020000040000fa
:04010000ae0200004b
:020000040000fa
:04010400ae02000047
:020000040000fa
:04010800ae02000043
:020000040000fa
:04010c00ae0200003f
:020000040000fa
:04011000ae0200003b
:020000040000fa
:04011400ae02000037
:020000040000fa
:04011800ae02000033
:020000040000fa
:04011c00ae0200002f
:020000040000fa
:04012000ae0200002b
:020000040000fa
:04012400ae02000027
:020000040000fa
:04012800ae02000023
:020000040000fa
:04012c00ae0200001f
:020000040000fa
:04013000ae0200001b
:020000040000fa
:04013400ae02000017
:020000040000fa
:04013800ae02000013
:020000040000fa
:04013c00ae0200000f
:020000040000fa
:04014000ae0200000b
:020000040000fa
:04014400ae02000007
:020000040000fa
:04014800ae02000003
:020000040000fa
:04014c00ae020000ff
:020000040000fa
:04015000ae020000fb
:020000040000fa
:04015400ae020000f7
:020000040000fa
:04015800ae020000f3
:020000040000fa
:04015c00ae020000ef
:020000040000fa
:04016000ae020000eb
:020000040000fa
:04016400ae020000e7
:020000040000fa
:04016800ae020000e3
:020000040000fa
:04016c00ae020000df
:020000040000fa
:04017000ae020000db
:020000040000fa
:04017400ae020000d7
:020000040000fa
:04017800ae020000d3
:020000040000fa
:04017c00ae020000cf
:020000040000fa
:04018000ae020000cb
:020000040000fa
:04018400ae020000c7
:020000040000fa
:04018800ae020000c3
:020000040000fa
:04018c00ae020000bf
:020000040000fa
:04019000ae020000bb
:020000040000fa
:04019400ae020000b7
:020000040000fa
:04019800ae020000b3
:020000040000fa
:04019c00ae020000af
:020000040000fa
:0401a000ae020000ab
:020000040000fa
:0401a400ae020000a7
:020000040000fa
:0401a800ae020000a3
:020000040000fa
:0401ac00ae0200009f
:020000040000fa
:0401b000ae0200009b
:020000040000fa
:0401b400ae02000097
:020000040000fa
:0401b800ae02000093
:020000040000fa
:0401bc00ae0200008f
:020000040000fa
:0401c000ae0200008b
:020000040000fa
:0401c400ae02000087
:020000040000fa
:0401c800ae02000083
:020000040000fa
:0401cc00ae0200007f
:020000040000fa
:0401d000ae0200007b
:020000040000fa
:0401d400ae02000077
:020000040000fa
:0401d800ae02000073
:020000040000fa
:0401dc00ae0200006f
:020000040000fa
:0401e000ae0200006b
:020000040000fa
:0401e400ae02000067
:020000040000fa
:0401e800ae02000063
:020000040000fa
:0401ec00ae0200005f
:020000040000fa
:0401f000ae0200005b
:020000040000fa
:0401f400ae02000057
:020000040000fa
:0401f800ae02000053
:020000040000fa
:0401fc00ae0200004f
:020000040000fa
:100200008fdd21000e7f24000e0188000000000019
:10021000000020000000e000020032000001200089
:100220002002880014000700ce0007000000e00054
:1002300003003a0080c823000100200002003700bc
:100240000000200001002000810f7000010032003a
:1002500014000700000020000000e000020032004f
:100260000000020000000000444002000000000006
:100270000040da000000fe004440a900400a2000cf
:100280000000e00003003200002020009001880000
:100290004440a800000006008a1f78008b1f7800e9
:1002a00000000600a1028800800478000000eb0036
:1002b0001f003700e284440054a0b4009905ba003e
:1002c000e284440054a0b4009906ba00e2844400d9
:1002d00054a0b4000006eb00476fde00fd07b2003b
:1002e000ae018800636ce10003003a00eaff0700fa
:1002f0000000eb000e003700606ce10008003a00df
:10030000004deb000a05e800020039003420ec0043
:100310000af0a0008b05e900f9ff3e000400370059
:100320006168e100010032000086eb000b0007006d
:1003300019c7ba001905ba000e04e00003003a001c
:100340000a00e000dbff3a0000000600fe07b200f2
:10035000ae0288008a047800f5ff37000cd0a300b5
:10036000e20f4d001c00390089027800354dba00bb
:100370000a05e800020039003420ec000af0a00071
:100380008b05e9000f003200254dba000a05e80090
:10039000020039003420ec000af0a0008b05e900cf
:1003a000080032000c00e0000600320015cdba0053
:1003b0000a05e800020039003420ec000af0a00031
:1003c0008b05e9008984e80054a0b4000b00e0002c
:1003d000e2ff3a00000006009902ba00055d7800cd
:1003e0008b05e900f7ff3200c82ade00055d7800c2
:1003f0008b05e900f3ff32000c00e000f1ff320052
:1004000019ddba00eeff37003c1c040000000000bc
:100410009a2f040000000000b03d0400000000001e
:10042000c03f040000000000403f04000000000046
:10043000dc070400000000003600f800809fbe00ca
:10044000829fbe00849fbe00869fbe003200f800df
:100450003400f80010002000a001880000202000d7
:10046000900188000000fa008860a900490b07008d
:100470000000e000030032007a3e020000000000ad
:10048000000000000080fa003400f9003200f9009a
:100490004f03be004f02be004f01be004f00be0022
:1004a0003600f900004006003600f8008020a90060
:1004b0000000eb00e91e07003600f800eb1e070005
:1004c0008040a90010002000e41e07003600f8005c
:1004d0008060a90020002000e01e07003600f80020
:1004e0008080a90030002000dc1e07003600f800e4
:1004f0008600a90070002000d81e07003600f80012
:10050000809fbe00829fbe00849fbe00869fbe006b
:100510000000fa00671b07008800a9000080fa00ad
:100520004f03be004f02be004f01be004f00be0091
:100530003600f90000400600801f78000000fa0035
:10054000f01c8000004078004ae8b7008960a900ec
:100550000080fa004f007800004006000040da00fa
:100560000000fe000000050003f0a200889fbe000e
:100570008a9fbe008c1f7800fe0007000501330033
:100580006450e1004f0032006420e100520032006c
:1005900003826c0007003b000905d0000306d00071
:1005a000820f54000c065d00020039000200320088
:1005b00089017800030678008582550004003d001b
:1005c0000003fd008103fd008502ea008b854200e7
:1005d000840f720002003b0060001000e0801800f1
:1005e0006011b8000005eb007a28e1000a0039002c
:1005f00006007800c75ddd00f707b2008780750050
:100600002d003700828171000a01780061056000c9
:100610008180d1000080d3008502e900f9ff3b0012
:10062000060440008784480002003b006004140078
:10063000e0841c000988a300070032008a81710051
:1006400082817100610164008904d1000884d300b3
:100650008b05e800170037000978a30013003a0063
:100660000b00e000130034008b05e900080444008f
:1006700089844c000a4474000978a3000d003a00f4
:100680000b00e000070034008b05e900080444007b
:1006900089844c0001003a000b0020000978a30077
:1006a000f7ff32000001eb00020037008281710089
:1006b0000a017800740007000cf0a70001f0a00008
:1006c000bd0037006420e10002003a00838f6c0017
:1006d000bd0033000801be000200be00b6003700b6
:1006e000889fbe008a9fbe008c1f7800a100070073
:1006f000a800330003866c006450e1002e00320035
:100700006420e100330032006150e1002f0032002c
:100710006120e1003100320085855500eb07b00013
:1007200009002000080420000500370008044400e8
:1007300089844c000a0031000603430087834b0084
:100740000001530081815b00f8ff33000203be000b
:100750000800a0000804440089844c00f6ff39001a
:10076000c639dd0083017300010032001300200050
:100770008904d1000884d3000998a3000500320041
:100780000800a7000300a0008904d1000884d3005a
:100790008b05e8008904d1000884d3000001eb0038
:1007a0000281d2003800070001f0a1000cf0a70080
:1007b00001f0a000800037006420e10082003200d8
:1007c0000801be000200be00f7ff37006120e10013
:1007d0007d0032006000b800f3ff37000000200009
:1007e00001f82700f0ff370014002000ad003700ab
:1007f000f4ff2f00ab0037000001be0048000700e7
:100800000470a70003f0a1006509b10016003200d2
:100810000d0035006828e10006003500f0ff2f00cc
:10082000f1ff27000300e00013003b000100280057
:100830000000050000004000818048008502e900ba
:10084000fcff3a0008003700f88f420002003c002d
:100850008000eb00000005008100d1000080d30083
:100860008502e800fcff3a000300e00002003b00c4
:1008700060001000e0801800000006004f89de00d4
:1008800082017800a20037008100200061805500bd
:100890000b003d000b00200061fe2f000100e10075
:1008a0001d00340082817100610164008904d1005f
:1008b0000884d3000000e800faff3a00710020002d
:1008c0006100640003007000020060000900320053
:1008d00061044400e0844c000988a5000500320052
:1008e0008b05e8006808e10002003a008904d100a5
:1008f0000884d300f20f20000258e10005003d00fb
:10090000c75ddd00f907b200898075000800780036
:10091000000006000bf827008b007800000005009f
:10092000c70ade00f107b200f50fb200080032007e
:10093000e1cf4200020032000170a0002400050057
:10094000810f70000100320004080500440005001a
:10095000810f700002003a00140005008502e900d2
:100960000000400081c04800fcff3b000170a00077
:10097000240005000004be00e9ff07000003be00dc
:100980000405be000200be00e5ff0700844f7500ad
:10099000000006000200be006450e10005003600c1
:1009a0006420e100020036000968a30001003a005b
:1009b0000800be000160a0004f0678004f05be0091
:1009c0004f04be0000000600f0ff2f00f1ff2700db
:1009d000f9ff3700889fbe008a9fbe008c1f7800f9
:1009e000e4ff0700ebff330003866c006450e10076
:1009f000240032006420e100270032006150e10051
:100a0000220032006120e100210032008b8542008b
:100a1000eb07b1000134b800003ab8000804420006
:100a200089844a00013ab8000030b800888040004c
:100a300009014a00040033000000400081804800a2
:100a4000020149008b05e900c909dd00830170003e
:100a50000100320013002000c814de004814dd003d
:100a60004709de001200b200c808de0008847000ea
:100a700085ff070001f0a1000cf0a70001f0a00025
:100a8000cdff37006120e100cfff32000801be003a
:100a90000200be00f7ff37006150e100fcff3a00a2
:100aa000c9ff3700889fbe008a9fbe00841f780060
:100ab000b0ff07004f00780011003300f0ff2f0057
:100ac000838f6c0006003b00040565000a00a70048
:100ad0000800370009f0a6001000200008003700c9
:100ae000820f5400838f5c00030039001000200047
:100af00001003e000000200009f0a7000000ea000d
:100b00004f05be004f04be000000e00000000600dc
:100b1000881f7800030478000300e00007003d0010
:100b200060001000e080180060011900e0811900e9
:100b300002003b0001f02d00030037000400070015
:100b400008f0a70001f0a0004f04780000000600a4
:100b5000889fbe008a9fbe00008270000402710060
:100b600004827100260032000004be000200be00b4
:100b70006011b8006b092000950220000182cf00af
:100b80000a0039000541b1000082cf00070039009a
:100b90000541b1000982cf00040039000541b100d0
:100ba0000882cf00010039000541b1000542520022
:100bb000120032000a003b00828171006101640072
:100bc0008100d1000080d3008984d3000884d30041
:100bd0008b05e8000442e800f7ff3a000700370001
:100be0000804440089844c000000480081804800cb
:100bf0008b05e9000442e900f9ff3a0022ff0700f3
:100c00004f05be004f04be0000000600090037007b
:100c100030427800b1417800834f52000400320026
:100c200010002000060031000080eb0000000600ec
:100c30000201e9000200e000f5ff3a000000eb00cd
:100c4000000006008001780002003700b1597800ea
:100c50000201e9000200e000fcff3a00000006008b
:100c60008001780002003700815978000201e90014
:100c70000200e000fcff3a000000060000017800de
:100c8000820178003204e000fdff3a0003017800a1
:100c9000b1417800035978000304e000fcff3a00fa
:100ca00000000600020037000204e0000b003200e2
:100cb000810178000002780030417800b14f510086
:100cc000f9ff32001000200014427800934f5200c8
:100cd000030031000080eb00000006000000eb0084
:100ce0000000060080007800010178003104e00077
:100cf000fdff3a000000510000000600ee874700ab
:100d0000889fbe008a9fbe008c9fbe008e1f780009
:100d1000f0b79f0001067800820578000004780093
:100d2000080578000a047800b84678000d00fb003a
:100d30008c0007000000e000f9ff3a00d0c2b300c9
:100d400080cf56000300320000c0e90080cf56007b
:100d500002003a000a05e8000100370080467800ea
:100d60000b00e00005003500e18f55000300320064
:100d700040022000808f5500060034006044b80017
:100d80000c00e000700032007fb09700000e780089
:100d90006d0037000b00e0000e003200f08f5500b0
:100da0001a003a0000c3b3009a4f100017003a002f
:100db0001a40900081c7b300814f500003003200f9
:100dc00081c5b300814f500010003a000a85e80049
:100dd0000e003700ab00200000c3b3009a4f100094
:100de0000a003a001a40900081c7b300814f5000ba
:100df000040032008b00200081c5b300814f5000f9
:100e000002003a000a85e8000b0120000a00780081
:100e1000000278000400780001c3b300b0cf1000d6
:100e2000fbff3200040778006044b800b4b79f00ad
:100e30000d00370021cb210081405000c1ef9f0001
:100e40006159b9000800be005a0407004fea970034
:100e50000401fb00cf91de00c8b79f00d9b79f0007
:100e600002044000838448008e0278003e00fb00ac
:100e700085bf9f00430007000b01780080007800c9
:100e800020cb2100260207008fba97000000e00067
:100e9000e8ff3a003fb29700850f550005003a0081
:100ea0006044b8000c00e00027003200ffb2970059
:100eb000240037000482520070cd210060c07d0004
:100ec0000000fb00000252001700330011003a003e
:100ed0004fe997000200fb00cf80de0000005400c5
:100ee00081805c00800f5400818f5c000900390014
:100ef0006159b90085bf9f001b0407008fba970096
:100f00004fb19700dfb19700820f5000838f5800d8
:100f10000500320020022000a0ee88000084eb00d3
:100f20008084eb0005003700d0c2b30080cf5600ac
:100f300002003a0060041400e0841c000c00e00091
:100f400001003200050e78000800be004f0778004f
:100f50004f06be004f05be004f04be00ef00b100bb
:100f6000000006006900e100040035006d00e100aa
:100f7000030034000002b10001003200000005004f
:100f800010000500800078001104b1000300350056
:100f90009101b10001003c000050a00000000600db
:100fa000b0ee80000000e00001003200000001000f
:100fb00040dd210000000600881f78000204780050
:100fc000080178001fff0700080040004f04780068
:100fd000000006000000fa00881f78000004780076
:100fe000ea8157003fb9970088007800c07d200053
:100ff000070007000000e000020035008040eb0021
:10100000017478004f0478000080fa0000000600a8
:101010006200fa00889fbe008a1f780000057800f1
:1010200081047800020478008300780080f92f00a2
:101030000f004000bb0307009a979f00a9979f00ed
:101040000000eb00b09f9f001885fb008a04fb00a6
:101050000a05ea004f55de0050022000808f540040
:101060000d003200e10f55000b003a000a01780034
:10107000880078002f9097009f919700030001004f
:10108000a0979f000000e0008e0032003f9897007c
:101090000000e800b09f9f000a04440050022000b6
:1010a000808f5400040032000900e000e6ff3a009f
:1010b0003f989700840037000000eb00909f9f004e
:1010c000809f9f00f0979f00e0979f00d0979f0020
:1010d000c0979f0007003700e1d8210001005000b1
:1010e0000000400021d8210061007800df989700bf
:1010f00001007000d09f9f008804780009047800e8
:10110000384578008a00fb00e0d821008e010700f6
:101110000000e000f0ff3a00a1c2b300814f55008b
:101120000e003a00cf8897000180e900c08f9f0031
:1011300010007800c09f9f000000e00005003d0007
:101140000000ea00c09f9f005f9897000020a00069
:10115000d09f9f000904e8000f003700c09f9f0048
:101160000000eb0005003700f2ff2700820f50005f
:10117000020032006a01b9000280400009047800d0
:1011800088047800b900fb000103b100e98f50002a
:10119000f5ff3600c09f9f00e0c2b300984f1000db
:1011a000020032000080eb0019003700a0c2b3003b
:1011b000d84f100007003a00cf8897000180e9005f
:1011c000c08f9f0010007800a09f9f000804e800d7
:1011d000100037000000eb00a09f9f0088007800ff
:1011e00005003700f3ff2700830f50000200320094
:1011f0006a02b90004004100010478008800780008
:101200003101fb000203b100e90f5100f5ff360088
:10121000a09f9f00984478008900fb00a0d7210080
:10122000490107000000e000020032000804e80065
:10123000010037008044eb00c97f9f0080c6b300e7
:1012400080cf540004003a0098cf14000a003a00fe
:101250006640500006003700c0c6b30080cf54007f
:1012600005003a0098cf140003003a0065404000a2
:10127000c07f9f000804e8001801fb00e3fb2f007b
:101280008f81410081f92f008f804000a0f92f004d
:101290000f004000100007000000e00009003a00c5
:1012a000e1fb2f008f804000a0f92f000f004000cd
:1012b000600207000000e000020035000804e800ba
:1012c00061ff37000080eb004f0578004f04be003f
:1012d0000080fa0000000600889fbe008a9fbe00c2
:1012e000e4c6b300844f5100be00320010003c0041
:1012f0006b425200844f51001800320005003c0040
:1013000054c2b300844f5100f600320084c5b300cc
:101310000f00370044c6b300844f51001400320060
:1013200065424200844f5100f1003a00100037003e
:1013300004c7b300844f5100dd0032005600350071
:1013400065424200844f5100530032006342420024
:10135000844f5100e6003a004f0037001181e90048
:1013600082087800f000900012417800de0037001b
:1013700020629000c5c6b300854f520007003a00b6
:101380009102780064825200840878001402be0042
:101390004fabde00860378001400370015c7b3009a
:1013a000854f520003003a0011047800680254008f
:1013b00005003700a5c6b300854f520006003a006d
:1013c0009104780068825400840878005403be00b9
:1013d0004402be00050037001182e900840878004d
:1013e00014027800cfa2de00612bb9000498be0081
:1013f0000690be00a060900088c6b30088cf500061
:101400000d00320028c6b30088cf500004003a0017
:101410000402fb00cfa2de00612bb90008003700f8
:1014200048c7b30088cf5000030032006644440030
:1014300088cf500004003a00cfa2de00612bb90033
:101440000498be000690be003002be002003be001d
:10145000f0009000e00f5200e08f5a00e00f5b00b8
:10146000e08f5b0002003d00d4c2b30008003700eb
:10147000001290000418a30002003200b4c2b300ae
:10148000030037000408a3005100320004c2b30077
:1014900084f178004c00370020629000c5c6b3008c
:1014a000854f520008003a0011057800640255008b
:1014b000840878001404be006055b8000802be001d
:1014c0000a03be001400370015c7b300854f520051
:1014d00003003a0091047800688254000500370048
:1014e000a5c6b300854f520006003a0011057800ea
:1014f00068025500840878005403be004402be0010
:10150000050037001182e900840878001402780091
:101510008002eb006033b8000498be000690be0065
:10152000a060900088c6b30088cf50000d00320044
:1015300028c6b30088cf500004003a000482fb00a4
:101540008002eb006033b8000800370048c7b300e2
:1015500088cf5000030032006644440088cf50001a
:1015600004003a008002eb006033b8000498be002b
:101570000690be00801090000138a30014003200d5
:101580003002be002003be00e00f5200e08f5a0080
:10159000e00f5b00e08f5b000d00320081c7b300fd
:1015a000814f51000300320081c5b300814f5100cb
:1015b00007003a00f000900004c3b30084f1780003
:1015c0008100e80082f178008100e8007100980055
:1015d000f000900081814100630098008240780013
:1015e0003e003700a0619000c4c6b3001181e9003d
:1015f00084cf5100220032000a003c0064425200b5
:1016000084cf51002500320004c2e80084cf51008d
:10161000130032006842520084cf51001e003a008d
:101620000a00370044c7b30084cf51001b003200ca
:101630006642420084cf51001800320069425200d5
:1016400084cf510014003a0005003700820878006a
:101650009200780040589000804878002c003700b5
:101660008208780092007800600a9000cfa2de0025
:10167000612bb9008498be008690be00240037001c
:10168000820878009200780060099000cf91de0017
:101690008288be001e0037001181e90082087800b0
:1016a00092007800600890008008780018003700e9
:1016b0001181e9008208780012027800cfa2de00d2
:1016c000612bb9000498be000690be00f0009000a7
:1016d000818141006300980081c7b30026000700a4
:1016e0000b003700f000900082f178000600370010
:1016f000f0009000818141000204e00001003a0006
:1017000052c2b300824978008100e800710098005d
:101710000000eb004f05be004f04be0000000600b5
:1017200003003700b0cf1000050032000201e900cd
:10173000800178000200e000faff3a000000050096
:101740000300780000000600020037000304e000f8
:10175000060032000001780002007800b0417800f5
:1017600081cf5100f9ff3a00010037000001eb0082
:101770000200780000000600fc874700889fbe003a
:101780008a9fbe008c9fbe008e1f780000067800e6
:1017900080c5b30080cf50000a003200774040007f
:1017a00080cf50000a0032006940400080cf5000d6
:1017b0000b00320090d4210080bf9f00ae002000bb
:1017c0000a00370082d3210082bf9f000600370045
:1017d00093d4210083bf9f008e00200003003700b8
:1017e00094d4210084bf9f000e0120003c02be0063
:1017f0002c03be000605be000404be0040c6b300b4
:1018000080cf5000030032006540400080cf500080
:101810000b003a00e00f5200e08f5a00e00f5b002f
:10182000e08f5b0006003d006000b8006011b8006a
:101830000404500085845800060559008785590026
:10184000e80f57000400320040002000f00f57005e
:1018500038003a000100370030002000e00f54004b
:10186000e08f5c00e00f5d00e08f5d0004003a0057
:10187000dc0890008d0120000100e000060032002d
:101880008e00e900888060008fba9700e5c078007c
:10189000f1ef9f007d012000800078008100e900c9
:1018a000050033008b05d1000a85d3008984d3005d
:1018b0000884d300f9ff3700089ebe000a96be00d8
:1018c000120037008d06e9008e00e9008480600078
:1018d0000fb99700e2c1780082fd2f000f0141008f
:1018e00003f17e00800078008100e90005003300ec
:1018f0008783d1000683d3008582d3000482d3007e
:10190000f9ff3700049ebe000696be003c02be00f2
:101910002c03be00e00f5200e08f5a00e00f5b0086
:10192000e08f5b008b0034000d00e000e5ff3c0021
:10193000880037002c60900081c6b300814f5000b2
:101940000b00320006003c000004e00008003200fa
:10195000e6c05000814f50004e003a0004003700ae
:10196000c1c6b300814f50004a003a002100370041
:101970000800e00004003a005c0890008d0120009f
:101980000000e00006003200110009000e84d800bb
:101990000fb99700e2c07800f1ef9f007d012000b1
:1019a000110009000e84d8000a0037001100090058
:1019b0000e04d8008d06e9000e81b900020454001f
:1019c0008fb8970061417c0081fd2f008f8040001f
:1019d00082f07e00000478000800e000020032007f
:1019e0000d00e000f1ff3c00cfc4de00614db90006
:1019f00025003700e00f5400e08f5c0004003a003f
:101a00005c0890008d0120000000e000070032001b
:101a10006171b9000800be00630107008fb997002b
:101a2000e3417800f3ef9f007d0120006171b90070
:101a30000800be004c0107000b0037006171b900bf
:101a40000800be00390107008d06e90000f1b90069
:101a5000020454000fba9700e4427c0084fd2f007a
:101a60000f02420005f27e000004be00e00f5000ad
:101a7000e08f5800020032000d00e000efff3c0054
:101a80004fcdde008a057800089ebe000a96be0093
:101a900030003700e00f5400e08f5c00e00f5d0085
:101aa000e08f5d0004003a005c0890008d0120008a
:101ab0000000e000090032006172b900612bb9003a
:101ac0000800be000a01be00e00107000fba97003f
:101ad00064427800f4ef9f007d0120006172b9003c
:101ae000612bb9000800be000a01be00d00107004a
:101af0000d0037006172b900612bb9000800be000b
:101b00000a01be00d50107008d06e90000f2b90008
:101b1000040454008fba970065427c0085fd2f00b5
:101b20008f82420084f27e00009ebe000296be00bc
:101b30003c04be002c05be00e00f5400e08f5c00aa
:101b4000e00f5d00e08f5d00020034000d00e0005a
:101b5000e8ff3c00e80f570010003a000c1090001e
:101b60000038a3000d003200f78f560006003e003b
:101b700085fd2f008f824200e5c07e0000c3b300c8
:101b800080cf5000050032008d06e90002c3b3008b
:101b900081fd2f008f80400082f07e00788116004a
:101ba000120e98006c00900083fd2f008f81410081
:101bb0008d80410023fc07001c089000dc08900089
:101bc000810f500006003d0000805000000e98007c
:101bd0000c1090000040a100001698000f00370084
:101be0000100e0000d003d008c109000f4806000ca
:101bf000f08f500009003a007c099000fc00900032
:101c0000810051000c09900082805000008050003b
:101c10004240a90001003400000e98004f077800f0
:101c20004f06be004f05be004f04be00cf01b100fd
:101c3000000006000400fa00889fbe008a9fbe00d4
:101c40008c1f78000004780001067800f80d9000e1
:101c50007800900080855500080890008085550028
:101c60001808900080855500280890008085550050
:101c70003808900080855500480890008085550000
:101c80000002220090bf9f0000032300a0bf9f001e
:101c9000081090000028a30015003a000b00e00097
:101ca000130034000b0578008a047800e20f550019
:101cb0000100360029002000c801900009017800c9
:101cc000ee80570058009000030001005004980077
:101cd0000000e0008c00320068089000090040001d
:101ce000600c9800090555004240a900eeff3c0039
:101cf000780190000200e0000c003400c801900060
:101d00008c007800580090000300010050049800f7
:101d10008080eb000000e0007c003200e8089000ca
:101d20007800900000804000600c9800880c9000c3
:101d30000900e0001100340009057800e28f54002a
:101d4000010036002a002000c80190000a01780036
:101d5000ec805700580090000300010050049800e8
:101d60000000e00068003200680890000a004000af
:101d7000600c98008a845400edff37001809900029
:101d80000200e0000c003400c8019000e800900060
:101d90005800900003000100500498008080eb0080
:101da0000000e00059003200e80890001808900098
:101db00000804000600c9800a80c90000900e00032
:101dc0001100340009057800e28f5400010036004c
:101dd0002a002000c80190000a017800ec8057001a
:101de0005800900003000100500498000000e0003b
:101df00045003200680890000a004000600c98001e
:101e00008a845400edff3700380990000200e0009a
:101e10000e003400e8009000180890008080400018
:101e2000c801900058009000030001005004980081
:101e30008080eb000000e00034003200e8089000f1
:101e40003808900000804000600c9800c80c90009a
:101e50000900e0001100340009057800e28f540009
:101e6000010036002a002000c80190000a01780015
:101e7000ec805700580090000300010050049800c7
:101e80000000e00020003200680890000a004000d6
:101e9000600c98008a845400edff37000810900011
:101ea0008000eb000028a300180032000b00e000c7
:101eb000160034008b04780009057800e28f540086
:101ec000010036002a002000c80190000a017800b5
:101ed000ee80570058009000030001005004980065
:101ee0000000e00008003200680890000a0040008e
:101ef000600c98008a8454004240a900eeff3c0028
:101f00008000eb00010037008080eb0001007800ca
:101f10004f0678004f05be004f04be000080fa0057
:101f2000000006000108780000000600839f68009a
:101f30000100e00002003d0060001000e080180099
:101f40000300e00002003d0060011100e081190083
:101f5000050007004f00e00002003b006000100099
:101f6000e0801800000006006022b8000602200091
:101f70000000d0008180d2000482d2008582d2008d
:101f80000000a0000202520083825a0003003100c8
:101f90000202420083824a000000a1000603e90019
:101fa000f3ff3a0000000600efff07000400be0048
:101fb00000000600020ab900001bb9000200b800c8
:101fc000810042008100430000000600889fbe009f
:101fd0008a9fbe0030044200b0844a0030054b00a6
:101fe00090854b006000b1000898be000a90be00ca
:101ff0000440e10005c8e10006d0e10007d8e10097
:1020000002003100680040001008e8004f05be00e3
:102010004f04be0000000600889fbe008a9fbe00dd
:102020003004be002005be000418540005985c0072
:1020300006185d0007985d00110020000440e100d3
:1020400005c8e10006d0e10007d8e1000100390031
:102050008000eb00108810004f05be004f04be004a
:10206000000006001200fa00889fbe008a9fbe0092
:102070008c9fbe00e0b79f00f1b79f0082bf9f001a
:1020800093bf9f000605be000404be000000eb00e5
:10209000d0b79f00c0b79f00b0b79f00a0b79f0008
:1020a00090b79f000006eb005fb19700cfb097009c
:1020b000820141003fb097000200e00004003d00b3
:1020c000370007007e805700c0ff0700030037007d
:1020d000330007007e805700cfff0700dfb6970070
:1020e0000d00e0000c0035006fb29700ffb29700c2
:1020f0000fbb97009fbb970010002000010020003d
:102100006011b80000027200818272000203730045
:10211000838373001b0007000c06e8000104200005
:10212000810f5600e0ff3a000d00e00004003d0082
:102130000802be000a03be007e805700a3ff07000e
:102140005fa897000000e00005003a001fb297006a
:10215000afb297003fb39700cfb3970009000700d5
:102160006fb09700ffb097000fb997009fb9970025
:102170004f06be004f05be004f04be000080fa00af
:10218000000006000100070000000600a4b79f0041
:10219000b5b79f00c6b79f00d7b79f0000000600e5
:1021a0004f09de0082817100b3b79f004f01de004e
:1021b0008180400082807000a1b79f008fb097009f
:1021c0004f09de00000040000200700090b79f0041
:1021d0007fa897004f01de00818040008280700060
:1021e00081b79f000d0007004f3ade00000040005d
:1021f00004007000f0af9f000800070004024200d6
:1022000085824a0006034b0087834b00dfff0700ef
:102210000802be000a03be00000006002fb29700ad
:10222000bfb297004fb39700dfb3970000000600de
:10223000881f780018002000881f780089ff070099
:102240008f87e9004f04780000000600801feb0034
:1022500084ff07008f87e90000000600889fbe000a
:102260008a9fbe00e00f5000e08f5800e00f590039
:10227000e08f59000c003d006044b8006055b80084
:102280000000540081805c0002015d0083815d00dc
:10229000180020001500070008003d001800070086
:1022a0000004eb00050037000004eb000f000700fe
:1022b00002003d001200070018002000dcff0700ac
:1022c0000800e000060032006022b8006033b80069
:1022d0000000520081805a0002015b0083815b0094
:1022e0004f05be004f04be0000000600e00f520084
:1022f000e08f5a00e00f5b00e08f5b0000000600fb
:102300006044b8006055b8000402540085825c0047
:1023100006035d0087835d0000000600889fbe0005
:102320008a9fbe008c1f7800e00f5000e08f58009d
:10233000e00f5900e08f59000d003d006044b800e7
:102340006055b8000000540081805c0002015d000f
:1023500083815d001c0020000820e10009a8e10045
:102360000ab0e1000bb8e1000d003d0008003700a5
:102370000006eb00e00f5200e08f5a00e00f5b0018
:10238000e08f5b0006003d006044b8006055b80077
:102390000402540085825c0006035d0087835d00b3
:1023a000aaff07000c00e000060032006022b8001f
:1023b0006033b8000000520081805a0002015b00c7
:1023c00083815b004f0678004f05be004f04be00be
:0423d0000000060003
:020000040000fa
:1023d4006c65000064720000300000006c65000051
:1023e4006472000031000000726c0000656400003b
:1023f40072000000707700006d3000000070000073
:10240400776d000031000000746d0000726f0000f1
:102414006e000000746d0000726f000066660000bc
:10242400007400006d72000073000000616400001d
:1024340063310000002500003164000000610000e9
:102444006463000032000000616400006333000034
:102454000000000000000000111100002222000012
:102464003333000044440000555500006666000004
:10247400777700008888000099990000aaaa0000d4
:10248400bbbb0000cccc0000dddd0000eeee0000a4
:10249400cecd0000acab0000494400004c45000028
:1024a40000a50000a5a50000a5a50000a5a50000a5
:1024b400a5a50000a5a50000a5a50000a5a50000f0
:1024c400a5a50000a5a50000a500000074610000fa
:1024d400736b00004e6100006d6500000000000099
:1024e40074610000736b00004e6100006d650000b4
:1024f4000000000074610000736b00004e61000076
:102504006d65000000000000546d000072200000a2
:08251400537600006300000093
:020000040000fa
:10251c001000fa0020079800310798004207980035
:10252c00530798006407980075079800a0032000d3
:10253c00ae150700000f78001e0078000000e000c8
:10254c000e0032004e00900000004000a71507005e
:10255c00800078001e007800610898001e0078004a
:10256c00600890000000e00004003a001e007800b3
:10257c00cf1507000000eb00000f78001e0078005c
:10258c000000e000120032004e0090008000eb00d2
:10259c000001eb00821f78009e0378007e03900000
:1025ac00ee0290005e0290000001be00be009000a2
:1025bc002e0090000b0007008f87e9001e007800aa
:1025cc007900070010002000100798000200370067
:1025dc000080eb00100798001e0090000080fa00ad
:1025ec00000006001400fa0020079800310798003c
:1025fc0042079800530798006407980075079800e5
:10260c00060f9800170f98004e0090000000400035
:10261c00800078001e08900060089000010178008e
:10262c00510a20008bf907001e089000e00890006a
:10263c00110798001e089000e00890004e019000d1
:10264c00f0ff2700000041000000400080804000a7
:10265c001e089000711098000000eb00000f78002d
:10266c000d0037003e0090001e00400090407800a6
:10267c001e0890001e0040007e00400001487800bb
:10268c003e0090001e004000104078000004e00066
:10269c00050032001e0fe8001e007800ef0f5000fe
:1026ac00f0ff360001003700000000001e0890000b
:1026bc008040eb00516898007e009000e40f5000c1
:1026cc000200360040002000700798001e089000a1
:1026dc00fe009000510898001e089000fe0090002b
:1026ec00011898001e0890008000eb00111898004b
:1026fc001e0890000080e800691307001e08900077
:10270c006e004000661307001e0890009e089000a3
:10271c00510098007e0090008000eb0052002000d9
:10272c000300200000005100818059001e09900018
:10273c0070019800010998001e0890009e089000f6
:10274c00310898001e0990006000b800201998000c
:10275c00311998001e0890008040eb000178980019
:10276c001e0890008040eb00117898006e019000dc
:10277c00ae0090001e009000cb1307008000780084
:10278c001e089000010878000e0890000000e00080
:10279c00030032000e0890009e089000010878009b
:1027ac000080fa00000006000200fa00000f78001a
:1027bc0039140700304080000000e80030408800e9
:1027cc00004080000000e00007003a009e00780006
:1027dc000140880030408000e10f50000d003a00ad
:1027ec002d0407000b003700704080000000e00053
:1027fc0008003a0000408000d00890001e007800cd
:10280c0050089000808f500002003e009e0078001f
:10281c0001408800b04080000000e800b040880013
:10282c001e007800d008900060408000808f50001f
:10283c00030036001e0078005008900060408800ad
:10284c001e81e8001e007800500890006c00b90052
:10285c008000780020c521000080400082007800b4
:10286c001613070019140700704080000000e000e8
:10287c000900320000408000d00890001e00780053
:10288c0050089000808f5000030031007a3e020007
:10289c0000000000000000000080fa0000000600ac
:1028ac000600fa0010079800210798000000eb00c2
:1028bc00000f78001e009000ae009000e00f50005a
:1028cc00e08f580007003200f30007000001eb0016
:1028dc001e009000ae009000ce060700f40007002a
:1028ec00000f78001e0078000000e00003003a00a2
:1028fc007a3e020000000000000000000080fa0098
:10290c00000006000800fa0030079800be00900096
:10291c0011079800004080009e009000808f5000ae
:10292c0003003a000000eb00000f780012003700a3
:10293c00d91307001e00900060009000200798003b
:10294c00e213070010408000ae009000808f500012
:10295c000400320020408000ae009000808f5000b8
:10296c0003003a0020002000000f7800020037001e
:10297c0010002000000f78001e0078000080fa0084
:10298c00000006000600fa0020079800c21307009a
:10299c002e0090000000e00002003a000040800091
:1029ac00010037002e009000000f78001e00780008
:1029bc00d008900011079800c41307001e00900067
:1029cc000080fa00000006000800fa0030079800aa
:1029dc000000eb00000f78003e0090000000e000cb
:1029ec0002003a0000408000010037003e009000d9
:1029fc00100798001e009000d00890002107980046
:102a0c002e0090000080fa00000006000c00fa0076
:102a1c0040079800510798000000eb00000f780069
:102a2c005e009000e40f50000200360040002000d1
:102a3c0050079800981307004e0090000000e0002b
:102a4c0002003a0000408000010037004e00900068
:102a5c00100798001e009000801890002107980025
:102a6c00ae0090005e009000808f50005800320045
:102a7c00de0090002e009000808f50000c0036007d
:102a8c00004080009e009000808f50000e003200ad
:102a9c0000408000d00890005e009000808f5000b5
:102aac0009003e0010002000000f780006003700df
:102abc00004080009e009000808f500002003a0081
:102acc0010002000000f78001e009000d00890002d
:102adc00310798001e009000801890001e00900096
:102aec0050089000808f500003003a001e009000a8
:102afc00de009000510898001e009000de0090004f
:102b0c00011898001e009000800890007000900042
:102b1c00e00f5000e08f5800090035005e00900077
:102b2c008000eb0052002000030020000000510048
:102b3c00818059001e0190007001980001099800d5
:102b4c001e009000600190003e0090006c00b900e7
:102b5c008000780020c5210000804000800f5100cb
:102b6c0015003a001e0090000080e800aa12070031
:102b7c001e009000d008900060408000808f5000b4
:102b8c00030036001e009000500890006040880042
:102b9c001e0090000081e8001e009000500890007c
:102bac006c00b9008000780020c521000080400036
:102bbc0082007800411207001e0078000000e0003f
:102bcc00030032007a3e020000000000000000000a
:102bdc003e1307000080fa00000006000200fa0015
:102bec00c58120000002eb008001eb0002082000f0
:102bfc00e1242900c0c3210045fe0700000f780026
:102c0c001e007800e10f500002003a00f90b07009b
:102c1c00000f78001e007800e10f500010003a0001
:102c2c0011028000f0f12f00008060000050a00025
:102c3c001002880000000000000000000080eb0083
:102c4c008080eb00c0408800d1408800100020003c
:102c5c00704088000828ef000a28ef00df120700f8
:102c6c000080fa00000006000000fa00110280004b
:102c7c00f0f12f00008060000050a00010028800ce
:102c8c0000000000000000000e28ef00eb1207000f
:102c9c000080fa00000006000000fa00f0408000fe
:102cac000000e800f04088000080fa0000000600f8
:102cbc000600fa000000eb00000f78000000eb00ab
:102ccc0010079800f4120700f04080000000e900a3
:102cdc00f0408800f04080000000e00045003a0021
:102cec00304080000000e00042003200210037003c
:102cfc0070e5800040009000000f78009e00780086
:102d0c006e804000441207001e80e800421207004b
:102d1c001e007800d008900060408000808f50002a
:102d2c00030036001e0078005008900060408800b8
:102d3c001e81e8001e007800500890006c00b9005d
:102d4c008000780020c521000080400082007800bf
:102d5c00da1107001e007800d008900000408000b7
:102d6c0050089000808f50000200390010002000a5
:102d7c009040880030e580000000e000dcff3a0065
:102d8c001e0078000000e00001003200df020700a6
:102d9c0081408000210798002e0090000000e00088
:102dac000c003200f80007000000e00002003200c6
:102dbc0010002000904088002e0090000000e900d8
:102dcc00200798002e0090000000e000f5ff3a006c
:102ddc001028ef00904080000000e0000500320059
:102dec0010002000100798007a3e0200000000003e
:102dfc0000000000b51207001e0090000080fa00d1
:102e0c00000006000400fa00a312070042408000f4
:102e1c0053408000028fbe00ac1207001e00be00a3
:102e2c000080fa00000006000600fa000000eb002b
:102e3c00000f780042408000534080001207980039
:102e4c00230798001e009000ae0090000080fa004e
:102e5c00000006000000fa00304080000080fa00fc
:102e6c00000006000400fa00100798001e009000f5
:102e7c000000e00002003a00004080000100370032
:102e8c001e009000000f78009e0078007e804000ad
:102e9c000080fa00000006001200fa00700798008b
:102eac00010f98000000eb00000f78007e009000ee
:102ebc00100078000000e00052003200fe0090008c
:102ecc00210798002e00900010009000a0009000a8
:102edc002e009000110098002e00900090009000a1
:102eec002e00900064004000808f500005003a00d6
:102efc002e00900010009000a00090002e0090007a
:102f0c00110098002e0090001000900040009000de
:102f1c00300798007e019000420798004e00900008
:102f2c0010009000a00090004e009000110098003e
:102f3c004e009000900090004e0090006400400005
:102f4c00808f500005003a004e0090001000900059
:102f5c00a00090004e009000110098004e009000d0
:102f6c001000900040009000500798000000eb000b
:102f7c001007980015003700de0090001e0090002e
:102f8c007e00400061417800424f98008e0890000e
:102f9c001e00900000804000904078004e48900049
:102fac0080cf50000d003a004e4890000004e00025
:102fbc0003003a00de009000010f78000800370093
:102fcc001e0090000000e800100798001e00900002
:102fdc00ef0f5000e8ff3600010037000000000042
:102fec001e0078000000e00005003a00de009000b2
:102ffc003e009000808f5000c6ff3a000100370061
:10300c00000000001e0078000080fa00000006009e
:10301c000600fa002007980050002000000f7800ee
:10302c001dff07001e0fe9001e0078006c00b900a0
:10303c008000780020c5210000804000ae00900088
:10304c0095ff0700100798001e0090000000e0009c
:10305c0004003a001e0078000000e000f1ff3a0086
:10306c0001003700000000001e0090000000e0008e
:10307c0004003a0010408000ae00900086ff07006c
:10308c00100798001e0090000000e00004003a00b9
:10309c0020408000ae0090007fff070010079800d2
:1030ac0003ff07001e0090000080fa0000000600dd
:1030bc000600fa0020079800ae009000010f78007f
:1030cc000000eb0010079800f3fe07002e009000a4
:1030dc000cfe0700e20f500027003a001e80e800ab
:1030ec004d110700ec1107001e00780040089000fd
:1030fc000000e000060032009e0078006e80400068
:10310c00451107001e00780011c0b300117898001b
:10311c00ee1107001e007800d0089000604080007f
:10312c00808f5000030036001e007800500890007d
:10313c00604088001e81e8001e0078005008900056
:10314c006c00b9008000780020c521000080400090
:10315c0082007800d91007001e007800d00890007b
:10316c000040800050089000808f50000200360014
:10317c001000200090408800cdfe07001e0090003b
:10318c000080fa00000006000e00fa000000eb00c0
:10319c00000f7800f04080000000e00066003a006c
:1031ac00404080005140800061004000e0804800b9
:1031bc0010079800210798001e019000ae019000a6
:1031cc0042408800534088001e009000ae009000e2
:1031dc00e00f5000e08f58000a003a0013408000c6
:1031ec00330798002040800010408800be009000fb
:1031fc0021408800a04080000000e800a04088002a
:10320c00c2010700c0408000d14080001e01900028
:10321c00ae019000800f5100818f59004a00390097
:10322c000100370000000000104080001000780002
:10323c000000e00005003a000080eb008080eb000d
:10324c00c0408800d140880040003700104080000a
:10325c004000900040009000400798004e00900005
:10326c0010019000a001900052079800630798008d
:10327c001e019000ae0190005e009000ee009000e8
:10328c00800f5100818f5900060031005e019000c3
:10329c00ee019000c2408800d3408800000000007e
:1032ac002a0037004e0090000080e800da1007007a
:1032bc004e009000400890000000e0000300320037
:1032cc004e0090006e004000d31007004e0090009e
:1032dc00d008900060408000808f500003003600c2
:1032ec004e00900050089000604088004e00900006
:1032fc000081e8004e009000500890006c00b9006e
:10330c008000780020c521000080400082007800f9
:10331c006a1007004e009000d0089000004080001a
:10332c0050089000808f5000beff39001000200024
:10333c00000f7800bcff3700804080000000e800e0
:10334c0080408800010037000000000090408000a1
:10335c000000e0000200320010002000000f780096
:10336c001e0078000080fa00000006000600fa003b
:10337c00f04080000000e00003003200100020004c
:10338c0090408800390037001228ef000040800080
:10339c0070109000100798001e00900074005000f0
:1033ac001007980042012000312529001e009000d2
:1033bc0013f607000000e00004003200004080001b
:1033cc00fe00400000408000fa12070061408000bf
:1033dc00010f7800010037001e0fe9001e00780075
:1033ec006c00b9008000780020c5210000804000ee
:1033fc00100078000000e000f7ff32001e0078009b
:10340c006c00b9008000780020c5210000804000cd
:10341c00200798002e00900010009000a000900053
:10342c002e009000110098002e009000900090004b
:10343c002e00900064004000808f500005003a0080
:10344c002e00900010009000a00090002e00900024
:10345c00110098002e009000100090004000900089
:10346c00004088009e007800614088000080fa00cf
:10347c00000006000600fa00000f78001207980002
:10348c0023079800004080006e0040008000780008
:10349c001e00780027100700120020001e0090006c
:1034ac00ae009000db0307000080fa00000006006d
:1034bc000a00fa00000f7800120798002307980002
:1034cc003407980045079800024080001e009000c9
:1034dc00ae00900001f0a000700198000109980066
:1034ec00004080006e004000800078001e007800d4
:1034fc00f20f0700120020003e009000ce0090005a
:10350c00c40307000080fa00000006000800fa005f
:10351c00000f7800120798002307980031079800d5
:10352c00004080006e004000800078001e00780093
:10353c00e20f07003e0090000000e00004003200a3
:10354c000080eb008080eb001007980021079800aa
:10355c003e0190001e009000ae009000ad030700ed
:10356c000080fa00000006000600fa002007980010
:10357c002e00900040009000400090001007980032
:10358c001e0090006e00400023100700f0408000e9
:10359c000000e00016003a001e0090000080e800d9
:1035ac001d1007001e009000d008900060408000a5
:1035bc00808f5000030036001e00900050089000d1
:1035cc00604088001e0090000081e8001e00900002
:1035dc00500890006c00b9008000780020c52100d4
:1035ec000080400082007800b40f0700050037000f
:1035fc001e0090006e0040008000780060ca210020
:10360c00ae0f07001e009000d00890000040800014
:10361c0050089000808f50000500360010002000ec
:10362c00000f780010002000904088000200370046
:10363c000000eb00000f78001e0078000080fa00fc
:10364c00000006000a00fa002007980032079800d4
:10365c00430798003e009000ce00900001f0a000bf
:10366c002e0190000089be002e00900040009000ba
:10367c00100798002e009000e70f07001e00900026
:10368c000080e800e40f07001e009000d0089000b6
:10369c0060408000808f5000030036001e009000b8
:1036ac0050089000604088001e0090000081e800e7
:1036bc001e009000500890006c00b900800078004b
:1036cc0020c5210000804000820078007b0f07009d
:1036dc001e009000d0089000004080005008900020
:1036ec00808f50000500360010002000000f78007d
:1036fc001000200090408800020037000000eb0012
:10370c00000f78001e0078000080fa000000060010
:10371c000200fa00000f7800a14080001e00780023
:10372c000108780040408000514080001e01780064
:10373c0010019800210198000080fa00000006009a
:10374c000a00fa0030079800410798005210070051
:10375c0042408000534080001207980023079800d5
:10376c0000408000107890000004e0000600320059
:10377c00004080008040eb00117898001000200081
:10378c00000f7800300037003e0090009000780069
:10379c00a0408000808f50000b0032003e00900053
:1037ac0010019000a00190001e009000ae0090004f
:1037bc00800f5100818f590003003e001000200043
:1037cc00000f7800200037003e009000a000900011
:1037dc00100090001e019000ae01900000015100fd
:1037ec00818159004e0090001000be00800f5100e6
:1037fc00818f5900120031004e0090001001be0064
:10380c003e00900010029000a00290001e0090005c
:10381c00ae0090000000520081805a00020040006f
:10382c00838048004e0190000089be003e0090004d
:10383c00b7ff07000000eb00000f78000200370014
:10384c0010002000000f7800201007001e007800e8
:10385c000080fa00000006000000fa0010002000b2
:10386c00904088000080fa00000006000200fa0078
:10387c00000f78002200070090e28000e10f50005a
:10388c00030036007a3e0200000000000000000039
:10389c00c4110700f7ff37000200fa000000eb002c
:1038ac00000f7800070037001e0078006c00b9008c
:1038bc008000780020c5210000804000dd0e07004c
:1038cc001e0fe8001e007800e40f5000f6ff3600d3
:1038dc00e0c82100d70e0700a0c92100d50e0700b3
:1038ec0060ca2100d30e0700e0c8210010408800f8
:1038fc00a0c92100204088000080fa0000000600ca
:10390c000000fa000080fa00000006000200fa0035
:10391c0010408000100078000000e00005003a0024
:10392c000080eb008080eb00c0408800d140880014
:10393c0009003700104080004000900040009000cb
:10394c00000f78001e007800a0009000100090007e
:10395c00c0408800d14088000080fa0000000600ba
:10396c000200fa0001408000010f78001e00780070
:10397c000080fa00000006000200fa00704080008f
:10398c000000e00003003a0010002000000f780057
:10399c0008003700f04080000000e00003003a000f
:1039ac0020002000000f7800020037000000eb0020
:1039bc00000f78001e0078000080fa00000006005e
:1039cc000400fa00100798009e009000010f780088
:1039dc001e0090000000e0003c0032001e00780049
:1039ec00d00890000040800050089000808f50005c
:1039fc00360031001e0078008008900070009000a6
:103a0c00e00f5000e08f58000a00350000408000a5
:103a1c00500890008000eb005200200003002000b2
:103a2c0000005100818059001e017800700198003f
:103a3c00010998001e007800600190001e007800bb
:103a4c00500890006c00b9008000780020c521005f
:103a5c0000804000800f510018003a001e80e800e2
:103a6c00ed0e070000408000d00890001e0078008a
:103a7c00510898001e007800d0089000604080002b
:103a8c00808f5000030036001e0078005008900014
:103a9c00604088001e81e8001e00780050089000ed
:103aac006c00b9008000780020c521000080400027
:103abc0082007800810e070004003700004080006f
:103acc00d00890001e007800510898000080fa0081
:103adc00000006000600fa0020079800ae009000d7
:103aec00110798000000eb00000f78002e009000ea
:103afc000000e000340032001e009000101890000e
:103b0c008000e9001e009000111898001e00900023
:103b1c00d00890001e00900000189000808f50007c
:103b2c00290032001e009000101890000000e000e8
:103b3c0025003a001e0090000080e800b60e070039
:103b4c001e009000801890001e00900051089800f4
:103b5c001e009000500890008000eb0052002000e6
:103b6c000300200000005100818059001e019000cc
:103b7c0070019800010998001e009000d008900078
:103b8c0060408000808f5000030036001e009000c3
:103b9c0050089000604088001e0090000081e800f2
:103bac001e009000500890006c00b9008000780056
:103bbc0020c5210000804000820078003f0e0700e5
:103bcc0010002000000f78001e0078000080fa0022
:103bdc00000006000400fa00004080007001900014
:103bec0080099000028fbe000440800000408000dd
:103bfc00500890008000eb005200200003002000d1
:103c0c00000051008180590070029800010a980050
:103c1c001e00be000080fa00000006000000fa0042
:103c2c00004080000000e0000400320000408000f2
:103c3c00901890008100e800111898000040800056
:103c4c000080fa00000006000a00fa002007980025
:103c5c0032079800430798000f0f070000408000c0
:103c6c00b018900020189000e00f5000e08f580022
:103c7c000f003a000040800011c0b300017898009a
:103c8c003e009000ce009000e00f5000e08f5800f6
:103c9c0007003200120020003e009000ce00900081
:103cac00dc0107007a3e020000000000000000006a
:103cbc00060f0700f80e0700004080002019900046
:103ccc00b0199000028fbe001e00be00e00f500025
:103cdc00e08f58000f0032002e0090000000e00032
:103cec0005003200024080006000b80020199800e6
:103cfc003119980007003700024080000082eb0069
:103d0c008082eb003e004200ae804a0020199800f1
:103d1c0031199800004080008040eb000178980039
:103d2c00ea0e07001e00be000080fa00000006002c
:103d3c001000fa001007980021079800320798002d
:103d4c004307980054079800660798007707980077
:103d5c00d10e07000040800000789000e24f500028
:103d6c00250032000440800024199000b419900002
:103d7c001e009000ae0090000080ea008180ea00f6
:103d8c00820278000301780080017800010078003d
:103d9c0083826200000061008000eb00c000dd0047
:103dac00000020000001be006128b8000001710075
:103dbc0081817100221a9800331a9800004080000b
:103dcc0011c0b300017898006e009000fe009000c6
:103ddc00e00f5000e08f5800070032001200200066
:103dec006e009000fe0090008a0107007a3e0200ef
:103dfc000000000000000000b40e0700a60e070033
:103e0c005e0090000000e0000500320000408000e1
:103e1c00b0189000201890005e0190000089be0040
:103e2c000040800000789000e14f500003003a0001
:103e3c000000eb00000f78001800370004408000f1
:103e4c0024199000b41990003e009000ce00900010
:103e5c000080ea008180ea00820278000301780089
:103e6c00800178000100780083826200000061000c
:103e7c008000eb00c000dd00000020000001be004f
:103e8c006128b8000001710081817100221a98002c
:103e9c00331a980010002000000f780000408000ba
:103eac008040eb0001789800880e07001e00780017
:103ebc000080fa00000006001000fa00300798009d
:103ecc004207980053079800610798007407980000
:103edc0010002000000f7800be0090001107980021
:103eec006d0e07007e0090000000e000050032001f
:103efc001e009000b0189000201890007e019000d9
:103f0c000089be001e009000007990004247980086
:103f1c001e00900021c0b300017898006e00900044
:103f2c00e20f500017003200e20f500005003e0077
:103f3c000000e0002e003200e10f500006003200bd
:103f4c002c003700e30f500017003200e40f500034
:103f5c001b003200270037001e0090002019900033
:103f6c00b01990004e009000de009000000071002f
:103f7c00818071001e019000201998003119980061
:103f8c001c0037001e009000b01890002018900004
:103f9c0061004000e08048001e019000201998004c
:103fac0031199800130037001e0090004e0190004c
:103fbc00de01900022189800331898000d0037008d
:103fcc004e409000e24f5000060032001e00900060
:103fdc004e019000de0190002218980033189800d2
:103fec00040037000000eb00000f780001003700e0
:103ffc00000000004e409000e14f50001e003a00bf
:10400c001e0090000080e800830d07001e00900049
:10401c00d008900060408000808f50000300360074
:10402c001e00900050089000604088001e00900018
:10403c000081e8001e009000500890006c00b90050
:10404c008000780020c521000080400082007800ac
:10405c001a0d07001e009000d00890000040800050
:10406c0050089000808f5000030036007a3e02000a
:10407c000000000000000000140e07001e00780075
:10408c000080fa00000006001400fa0040079800b7
:10409c00520798006307980071079800040f980066
:1040ac00150f980010002000000f7800ce00900033
:1040bc00110798000000eb00200798000e089000f4
:1040cc000000e000050032001e009000b0189000c7
:1040dc00201890000e0990000089be001e00900070
:1040ec0000799000624798001e00900021c0b30038
:1040fc00017898007e009000e20f5000170032000b
:10410c00e20f500005003e000000e0002e003200df
:10411c00e10f5000060032002c003700e30f500076
:10412c0017003200e40f50001b003200270037004c
:10413c001e00900020199000b01990005e009000b5
:10414c00ee00900000007100818071001e01900053
:10415c0020199800311998001c0037001e0090009f
:10416c00b01890002018900061004000e0804800da
:10417c001e01900020199800311998001300370087
:10418c001e0090005e019000ee0190002218980035
:10419c00331898000d0037006e409000e24f50002d
:1041ac00060032001e0090005e019000ee019000af
:1041bc002218980033189800040037000000eb0018
:1041cc00000f780001003700000000006e409000e6
:1041dc00e14f50002d003a00f04080000000e0005c
:1041ec0016003a001e0090000080e8000a0d07003f
:1041fc001e009000d008900060408000808f50001e
:10420c00030036001e0090005008900060408800ab
:10421c001e0090000081e8001e00900050089000e5
:10422c006c00b9008000780020c52100008040009f
:10423c0082007800a10c0700050037001e009000da
:10424c006e0040008000780060ca21009b0c0700c3
:10425c001e009000d0089000004080005008900094
:10426c00808f5000090036001e0890000000e0000e
:10427c00040032001e089000110020000108780094
:10428c000200370010002000904088001e007800cb
:10429c000080fa00000006000a00fa0030079800bf
:1042ac0041079800be009000010f78000000eb0061
:1042bc00100798001e007800807890004147980005
:1042cc001e00780021c0b300017898001e00780011
:1042dc00b01890002018900061004000e080480069
:1042ec001e01780020199800311998004e4090005a
:1042fc00e14f50002b003a00f04080000000e0003d
:10430c0014003a001e80e800c30c07001e00780061
:10431c00d008900060408000808f50000300360071
:10432c001e00780050089000604088001e81e80054
:10433c001e007800500890006c00b90080007800d6
:10434c0020c5210000804000820078005b0c070033
:10435c00050037009e0078006e80400080007800d9
:10436c0060ca2100550c07001e007800d008900090
:10437c000040800050089000808f500009003600eb
:10438c004e0090000000e000040032004e0090004f
:10439c0011002000010878000200370010002000f6
:1043ac00904088000080fa00000006000600fa0029
:1043bc00200798002e0090000000e00002003a0058
:1043cc0000408000010037002e009000100798007c
:1043dc00310d07001e00900000789000e24f500055
:1043ec0006003a001e0090008040eb000178980017
:1043fc0010002000000f7800020037000000eb00d6
:10440c00000f7800310d07001e0078000080fa00c4
:10441c00000006000e00fa004007980051079800b3
:10442c00620798004240800053408000028fbe001b
:10443c00004080008040eb00117898000040800024
:10444c000080e800740c07004e009000de00900025
:10445c003e014000ae8148000200be0020079800db
:10446c0031079800004080002e019000be019000a2
:10447c0012009800230098002e009000be009000bf
:10448c00be0f5000ae8f5800050031000040800078
:10449c008080e80020408000260c07000f003700c9
:1044ac00004080008080e80010408000210c070054
:1044bc00c0408000d14080002e019000be019000d1
:1044cc00800f5100818f5900040031002e019000a3
:1044dc00be019000c2408800d34088000080fa00e2
:1044ec00000006000600fa0010079800210798004b
:1044fc009e009000010f7800e70c07001e0078006a
:10450c00100178001e007800901090001e007800ba
:10451c00201090000088b900000078008000410055
:10452c001e007800110098001e0078008000eb003f
:10453c00011098001e007800900078001e00780092
:10454c00210098001e007800100178001e007800f1
:10455c00101090008000e9001e00780020109000e0
:10456c000088b90000007800800041001e0078002f
:10457c00310098001e00780080c0eb00616098004c
:10458c001e00780080c0eb00716098002e00900037
:10459c000000e0000d003a001e0078004000900082
:1045ac000000e0000f0032009e00780068804000a0
:1045bc00edfb07000000e0000a0032007a3e02002a
:1045cc000000000000000000060037009e0078008c
:1045dc0068804000970b07009e00780074804000b4
:1045ec00940b0700b90c0700100020000080fa00a3
:1045fc00000006000c00fa003007980041079800f4
:10460c00224f98004e0090000000e00003003a009a
:10461c000000eb00000f780005003700be00900092
:10462c004e0090000088b90000007800000f780060
:10463c00a10220001e8040006c0d0700100798009e
:10464c001e0090000000e000090032001e009000e7
:10465c00a002b000200798001e029000ae49900006
:10466c002e019000ce0090003e0090000300070049
:10467c001e0090000080fa00000006000a00fa00fc
:10468c00000f7800110798002207980063479800e4
:10469c00440798001e0090000000e00004003a005f
:1046ac00ce0090004e009000010878000300370007
:1046bc00ae0090004e009000010878004e00900073
:1046cc009e007800111098004e0090009e00900003
:1046dc0021109800110020004e00900081ff07006f
:1046ec004e0090008000eb00411098000080fa0012
:1046fc00000006000200fa00000f78001e0078008f
:10470c000000e0000e0032001e0078008000eb007c
:10471c00110098001e0078008000eb000108780062
:10472c001e0078008000eb00310098000002eb00c6
:10473c006011b8008000eb001e0078002300070019
:10474c000080fa00000006000800fa00604798009c
:10475c0010002000000f78000000eb0010079800fc
:10476c006e4190009e0090001e007800a1ff070093
:10477c00200798002e009000deff07002e0090000e
:10478c000080fa00000006000600fa0010079800ee
:10479c002107980022c0b3008000eb001e0090009f
:1047ac0094ff0700000f78001e0078000000e00066
:1047bc00030032001e007800ae009000011098003b
:1047cc001e0078000080fa00000006001600fa00b7
:1047dc006007980071079800020f9800130f98005b
:1047ec00240f98000000eb00000f7800ee00900002
:1047fc00110798000100370000000000260c07008c
:10480c001e009000801090001e0090001010900070
:10481c00808f5000030039002e089000e20f5000ea
:10482c0028003a002e099000fe0090001e00900017
:10483c000e020700200798001e0090004010900008
:10484c000000e00009003200ae0890001e0090004d
:10485c00ba0407000000e000170032007a3e0200a4
:10486c000000000000000000130037001e00900044
:10487c00200890000000e000090032001e009000ab
:10488c007400400038fb07000000e0000a00320012
:10489c007a3e020000000000000000000600370015
:1048ac002e0090000000e000030032007a3e02006f
:1048bc000000000000000000040c070010002000a5
:1048cc00420037000e0890009e089000e00f500048
:1048dc00e08f580003003a00fc0b07000000eb00cf
:1048ec003a0037001e0078000000e00004003a0097
:1048fc006600470086fb070010002000000f7800c0
:10490c00f20b0700e4f80700e30b07001e00900011
:10491c0060609000e14f400003003a001e009000e0
:10492c008040eb00616098001e0090007060900069
:10493c00e14f400003003a001e0090008040eb0065
:10494c0071609800e10b0700f0004700660047001b
:10495c007bfb07000000e00018003a001e009000ee
:10496c00a70207000000e000100032000e089000c3
:10497c009e0890001e019000680241000001be00dc
:10498c0004007800bbfa07001e0090003b020700f1
:10499c00c7f807000000e00097ff3a007a3e0200db
:1049ac00000000000000000094ff37001e00900083
:1049bc0032020700bef8070090ff37001e0090007f
:1049cc002e020700baf807000000eb000080fa0086
:1049dc00000006001000fa004007980051079800ec
:1049ec006207980073079800ce009000110798009a
:1049fc000000eb00200798001e0090008010900033
:104a0c001e00900010109000808f500003003900a1
:104a1c007e009000e20f500032003a001e00900021
:104a2c00f0609000614798007e019000de009000dd
:104a3c001e0090008d0107006e409000e14f400079
:104a4c0020003a001e009000401090000000e00092
:104a5c000c003200fe0090001e009000370407008e
:104a6c000000e0001c0032006e0090000000e0002e
:104a7c00190032006e00900011002000010878002f
:104a8c00150037001e009000200890000000e00088
:104a9c00110032001e00900074004000b2fa0700b2
:104aac000000e0000c0032006e0090000000e000fe
:104abc00090032006e0090001100200001087800ff
:104acc00050037006e4090000040e8008040780000
:104adc001e0090007160980010002000000f7800fc
:104aec00020037000000eb00000f78001e00780079
:104afc000080fa00000006000e00fa005007980033
:104b0c0061079800de009000110798000000eb0090
:104b1c00200798001e00900080109000310798002c
:104b2c001e009000901090003e009000808f50006e
:104b3c00320036001e009000f0609000014f98008b
:104b4c003e0090008000e8001e00900001109800cc
:104b5c000e489000e14f400020003a001e009000eb
:104b6c00401090000000e0000c0032008000eb00d0
:104b7c001e009000f10307000000e0001c00320052
:104b8c006e0090000000e000190032006e009000f2
:104b9c001100200001087800150037001e0090005d
:104bac00200890000000e000110032001e00900070
:104bbc00740040006cfa07000000e0000c003200aa
:104bcc006e0090000000e000090032006e009000c2
:104bdc001100200001087800050037000e489000f5
:104bec000040e800804078001e0090007160980042
:104bfc0010002000000f7800020037000000eb00ce
:104c0c00000f78001e0078000080fa0000000600fb
:104c1c001800fa0070079800010f9800120f980006
:104c2c00230f9800340f98000000eb00000f780061
:104c3c00fe009000110798000300370000000000f0
:104c4c000100370000000000130b07001e0090004d
:104c5c0080109000210798002e0090000000e000ca
:104c6c00340032001e009000b00090003107980014
:104c7c008e0890001e0090005e0107003e08900018
:104c8c000000e00019003a002e0090008000e900be
:104c9c001e009000011098001e009000100078007b
:104cac000000e00004003a00dcfb07008000780004
:104cbc001e009000110098001e0090004000900013
:104ccc000000e000180032001e0090006800400058
:104cdc0025fa07000000e000130032007a3e0200c3
:104cec0000000000000000000f0037001e009000c4
:104cfc00be009000310098001e009000200890002b
:104d0c000000e000080032001e009000740040001b
:104d1c0015fa07000000e000030032007a3e0200a2
:104d2c000000000000000000e80a0700100020004e
:104d3c004f0037001e089000ae089000e00f5000a6
:104d4c00e08f580003003a00e00a07000000eb0077
:104d5c00470037001e0078000000e00004003a0015
:104d6c00680047006afa070010002000000f780066
:104d7c00d60a0700c8f70700c70a07001e009000f4
:104d8c0060609000e14f400003003a001e0090006c
:104d9c008040eb00616098001e00900070609000f5
:104dac00e14f400003003a001e0090008040eb00f1
:104dbc0071609800c50a0700f200470068004700c0
:104dcc005ffa07000000e00021003a001e0090008e
:104ddc006d0107000000e000190032001e00900079
:104dec00100078000000e00005003a00aa0a070055
:104dfc001e00900010009000f1fa0700b30a0700a3
:104e0c001e089000ae0890001e0190007402410034
:104e1c000001be000400780096f907001e00900007
:104e2c0016010700a2f707000000e00083ff3a001c
:104e3c007a3e0200000000000000000082ff3700f4
:104e4c001e0090000d01070099f707007eff370048
:104e5c001e0090000901070095f707001e00900046
:104e6c00490107000000e00076ff32000000eb0073
:104e7c000080fa00000006001000fa0050079800ad
:104e8c006107980072079800de00900011079800e7
:104e9c000000eb00200798001e009000801090008e
:104eac00310798003e0090000000e0002500320021
:104ebc001e009000e0609000014f9800ee00900002
:104ecc001e009000cb0007003e0090008000e9001f
:104edc001e009000011098000e489000e14f400019
:104eec0010003a001e009000400090000000e0000e
:104efc00110032001e009000680040009af9070073
:104f0c000000e0000c0032007e0090000000e00089
:104f1c00090032007e00900011002000010878008a
:104f2c00050037000e4890000040e80080407800f3
:104f3c001e0090006160980010002000000f7800a7
:104f4c00020037000000eb00000f78001e00780014
:104f5c000080fa00000006000c00fa0040079800e0
:104f6c0051079800ce009000110798000000eb004c
:104f7c00200798001e009000001090000000e00038
:104f8c000c0032001e009000b00090003107980019
:104f9c00de0090001e009000960007001e0090009e
:104fac00be0090003100980010002000000f780027
:104fbc00020037000000eb00000f78001e007800a4
:104fcc000080fa00000006000400fa0010079800a8
:104fdc00310a07001e00900080109000010f78002d
:104fec003a0a07001e0078000080fa000000060054
:104ffc000600fa0020079800ae009000010f780020
:10500c00250a07001e007800901090001e00780002
:10501c000010900000805000100798002b0a070029
:10502c001e0090000080fa00000006000400fa0048
:10503c00100798001e00900080109000010f78005f
:10504c001e0078000080fa00000006000400fa0040
:10505c00100798009e009000010f78001e00780049
:10506c00130b07000080fa00000006000a00fa008b
:10507c002007980031079800420798000000eb00c9
:10508c00000f78002e0090008010900011079800ff
:10509c002e009000201090000000e0000c003a0060
:1050ac002e009000100078000000e0004a003a004a
:1050bc002e0090001000900086fa0700000f780078
:1050cc002e0090008000eb00110098004200370089
:1050dc004e0090000000e00019003a002e009000f5
:1050ec00a01090002e00900020009000010178008c
:1050fc00be009000d0ee07002e009000a0009000a3
:10510c002e00900020109000808040002e00900017
:10511c00210098002e009000a00090002e0090001e
:10512c0010009000808f50002b0039002e00900052
:10513c00900078002e009000210098002600370087
:10514c002e009000a01090002e00900030009000d7
:10515c0001017800be009000b7ee07002e00900011
:10516c00b00090002e009000201090000000ea008b
:10517c00808040002e009000310098002e0090009e
:10518c00b00090002e00900010007800808f50002e
:10519c00080031002e009000900090002e0090002e
:1051ac00201090000000ea00808040002e0090004b
:1051bc00310098004e009000e20f500006003a00bb
:1051cc001e0090000000e000030032001e00900062
:1051dc000000e900100798001e0090008000e80015
:1051ec002e009000011098001e0078000080fa003c
:1051fc00000006000400fa00000f78001107980068
:10520c001e007800201090000000e0001900320011
:10521c001e007800b00090001e0078002010900056
:10522c00808040001e007800310098001e0078003d
:10523c00b00090001e00780010009000808f50008d
:10524c00040039001e007800900078001e007800e1
:10525c00310098001e007800a01090001e0078000d
:10526c003000900001017800800078001e00900052
:10527c0071ee07000080fa00000006000400fa003e
:10528c0010079800840907001e009000f060900041
:10529c00014f7800160037001e009000401090005f
:1052ac000000e000070032008000eb001e009000c0
:1052bc00220207000000e0000c00320066f9070033
:1052cc000a0037001e009000200890000000e0004b
:1052dc000b0032001e00900074004000a2f8070082
:1052ec000000e000010032005bf907001e4fe900ee
:1052fc001e4078000004e000e7ff3c00010037008e
:10530c00000000001e00900080c0eb00716098004f
:10531c006e090700600907001e009000e060900015
:10532c00114798000d0037001e00900040009000bf
:10533c000000e0000d0032001e00900068004000ec
:10534c0089f807000000e0000100320042f9070074
:10535c001e4090000040e900104798001e4090004d
:10536c000004e000f0ff3c000100370000000000ea
:10537c001e00900080c0eb0061609800530907008c
:10538c000080fa00000006000400fa0010079800e4
:10539c00410907001e009000001090000000e00082
:1053ac0003003a0010002000000f780002003700c4
:1053bc000000eb00000f7800440907001e00780085
:1053cc000080fa00000006000400fa0010079800a4
:1053dc001e009000001090000000e00003003a0056
:1053ec0010002000000f7800020037000000eb00d6
:1053fc00000f78001e0078000080fa000000060004
:10540c000400fa0010079800230907001e00900002
:10541c00801090001e00900010109000808f5000a3
:10542c0003003a0010002000000f78000200370043
:10543c000000eb00000f7800240907001e00780024
:10544c000080fa00000006000400fa001007980023
:10545c001e009000801090001e0090001010900014
:10546c00808f500003003a0010002000000f7800dd
:10547c00020037000000eb00000f78001e007800df
:10548c000080fa00000006000c00fa0020079800cb
:10549c00310798004207980053079800ae0090001f
:1054ac001107980011028000f0f12f0000806000bd
:1054bc000050a00010028800000000000000000056
:1054cc001e009000ceff07000000e0001900320023
:1054dc004e009000de009000e00f5000e08f58006e
:1054ec000d0032001e0090006800400000017800a2
:1054fc004e009000de009000c904070011028000ed
:10550c00f0f12f0000806000100288000000000005
:10551c00c0ff2f003300370011028000f0f12f0084
:10552c000080600010028800000000000000eb000a
:10553c002c00370011028000f0f12f000080600079
:10554c00100288000000000011028000f0f12f0012
:10555c00008060000050a0001002880000000000d5
:10556c00000000001e009000801090001e009000b3
:10557c0010109000808f5000120031000001eb00e1
:10558c00be0090001e009000b8fe07001000200026
:10559c00000f78001e009000200890000000e00032
:1055ac000a0032001e00900074004000ab0507009a
:1055bc000000e00005003200b0ff2f00000f780063
:1055cc00020037000000eb00000f78001102800091
:1055dc00f0f12f0000806000100288000000000035
:1055ec001e0078000080fa00000006000c00fa0093
:1055fc00200798003107980042079800530798003d
:10560c00ae0090001107980011028000f0f12f00fd
:10561c00008060000050a000100288000000000014
:10562c00000000001e009000001090000000e00040
:10563c0019003a004e009000de009000e00f500080
